{
  "fileName": "MyToken.sol",
  "contractName": "MyToken",
  "source": "pragma solidity ^0.5.0;\n\nimport \"@openzeppelin/upgrades/contracts/Initializable.sol\";\nimport \"@openzeppelin/contracts-ethereum-package/contracts/token/ERC20/ERC20.sol\";\nimport \"@openzeppelin/contracts-ethereum-package/contracts/token/ERC20/ERC20Detailed.sol\";\n\ncontract MyToken is Initializable, ERC20, ERC20Detailed {\n    function initialize() public initializer  {\n        ERC20Detailed.initialize(\"DappHero\", \"DHR\", 18);\n        _mint(msg.sender, 1000);\n    }\n}",
  "sourcePath": "contracts/MyToken.sol",
  "abi": [
    {
      "anonymous": false,
      "inputs": [
        {
          "indexed": true,
          "internalType": "address",
          "name": "owner",
          "type": "address"
        },
        {
          "indexed": true,
          "internalType": "address",
          "name": "spender",
          "type": "address"
        },
        {
          "indexed": false,
          "internalType": "uint256",
          "name": "value",
          "type": "uint256"
        }
      ],
      "name": "Approval",
      "type": "event"
    },
    {
      "anonymous": false,
      "inputs": [
        {
          "indexed": true,
          "internalType": "address",
          "name": "from",
          "type": "address"
        },
        {
          "indexed": true,
          "internalType": "address",
          "name": "to",
          "type": "address"
        },
        {
          "indexed": false,
          "internalType": "uint256",
          "name": "value",
          "type": "uint256"
        }
      ],
      "name": "Transfer",
      "type": "event"
    },
    {
      "constant": true,
      "inputs": [
        {
          "internalType": "address",
          "name": "owner",
          "type": "address"
        },
        {
          "internalType": "address",
          "name": "spender",
          "type": "address"
        }
      ],
      "name": "allowance",
      "outputs": [
        {
          "internalType": "uint256",
          "name": "",
          "type": "uint256"
        }
      ],
      "payable": false,
      "stateMutability": "view",
      "type": "function"
    },
    {
      "constant": false,
      "inputs": [
        {
          "internalType": "address",
          "name": "spender",
          "type": "address"
        },
        {
          "internalType": "uint256",
          "name": "amount",
          "type": "uint256"
        }
      ],
      "name": "approve",
      "outputs": [
        {
          "internalType": "bool",
          "name": "",
          "type": "bool"
        }
      ],
      "payable": false,
      "stateMutability": "nonpayable",
      "type": "function"
    },
    {
      "constant": true,
      "inputs": [
        {
          "internalType": "address",
          "name": "account",
          "type": "address"
        }
      ],
      "name": "balanceOf",
      "outputs": [
        {
          "internalType": "uint256",
          "name": "",
          "type": "uint256"
        }
      ],
      "payable": false,
      "stateMutability": "view",
      "type": "function"
    },
    {
      "constant": true,
      "inputs": [],
      "name": "decimals",
      "outputs": [
        {
          "internalType": "uint8",
          "name": "",
          "type": "uint8"
        }
      ],
      "payable": false,
      "stateMutability": "view",
      "type": "function"
    },
    {
      "constant": false,
      "inputs": [
        {
          "internalType": "address",
          "name": "spender",
          "type": "address"
        },
        {
          "internalType": "uint256",
          "name": "subtractedValue",
          "type": "uint256"
        }
      ],
      "name": "decreaseAllowance",
      "outputs": [
        {
          "internalType": "bool",
          "name": "",
          "type": "bool"
        }
      ],
      "payable": false,
      "stateMutability": "nonpayable",
      "type": "function"
    },
    {
      "constant": false,
      "inputs": [
        {
          "internalType": "address",
          "name": "spender",
          "type": "address"
        },
        {
          "internalType": "uint256",
          "name": "addedValue",
          "type": "uint256"
        }
      ],
      "name": "increaseAllowance",
      "outputs": [
        {
          "internalType": "bool",
          "name": "",
          "type": "bool"
        }
      ],
      "payable": false,
      "stateMutability": "nonpayable",
      "type": "function"
    },
    {
      "constant": false,
      "inputs": [
        {
          "internalType": "string",
          "name": "name",
          "type": "string"
        },
        {
          "internalType": "string",
          "name": "symbol",
          "type": "string"
        },
        {
          "internalType": "uint8",
          "name": "decimals",
          "type": "uint8"
        }
      ],
      "name": "initialize",
      "outputs": [],
      "payable": false,
      "stateMutability": "nonpayable",
      "type": "function"
    },
    {
      "constant": false,
      "inputs": [],
      "name": "initialize",
      "outputs": [],
      "payable": false,
      "stateMutability": "nonpayable",
      "type": "function"
    },
    {
      "constant": true,
      "inputs": [],
      "name": "name",
      "outputs": [
        {
          "internalType": "string",
          "name": "",
          "type": "string"
        }
      ],
      "payable": false,
      "stateMutability": "view",
      "type": "function"
    },
    {
      "constant": true,
      "inputs": [],
      "name": "symbol",
      "outputs": [
        {
          "internalType": "string",
          "name": "",
          "type": "string"
        }
      ],
      "payable": false,
      "stateMutability": "view",
      "type": "function"
    },
    {
      "constant": true,
      "inputs": [],
      "name": "totalSupply",
      "outputs": [
        {
          "internalType": "uint256",
          "name": "",
          "type": "uint256"
        }
      ],
      "payable": false,
      "stateMutability": "view",
      "type": "function"
    },
    {
      "constant": false,
      "inputs": [
        {
          "internalType": "address",
          "name": "recipient",
          "type": "address"
        },
        {
          "internalType": "uint256",
          "name": "amount",
          "type": "uint256"
        }
      ],
      "name": "transfer",
      "outputs": [
        {
          "internalType": "bool",
          "name": "",
          "type": "bool"
        }
      ],
      "payable": false,
      "stateMutability": "nonpayable",
      "type": "function"
    },
    {
      "constant": false,
      "inputs": [
        {
          "internalType": "address",
          "name": "sender",
          "type": "address"
        },
        {
          "internalType": "address",
          "name": "recipient",
          "type": "address"
        },
        {
          "internalType": "uint256",
          "name": "amount",
          "type": "uint256"
        }
      ],
      "name": "transferFrom",
      "outputs": [
        {
          "internalType": "bool",
          "name": "",
          "type": "bool"
        }
      ],
      "payable": false,
      "stateMutability": "nonpayable",
      "type": "function"
    }
  ],
  "bytecode": "0x60806040525b5b61000b565b61196a8061001a6000396000f3fe60806040523480156100115760006000fd5b50600436106100d45760003560e01c8063395093511161008d57806395d89b411161006757806395d89b41146104c6578063a457c2d71461054a578063a9059cbb146105b1578063dd62ed3e14610618576100d4565b806339509351146103fc57806370a08231146104635780638129fc1c146104bc576100d4565b806306fdde03146100da578063095ea7b31461015e5780631624f6c6146101c557806318160ddd1461033357806323b872dd14610351578063313ce567146103d8576100d4565b60006000fd5b6100e2610691565b6040518080602001828103825283818151815260200191508051906020019080838360005b838110156101235780820151818401525b602081019050610107565b50505050905090810190601f1680156101505780820380516001836020036101000a031916815260200191505b509250505060405180910390f35b6101ab600480360360408110156101755760006000fd5b81019080803573ffffffffffffffffffffffffffffffffffffffff1690602001909291908035906020019092919050505061073b565b604051808215151515815260200191505060405180910390f35b610331600480360360608110156101dc5760006000fd5b81019080803590602001906401000000008111156101fa5760006000fd5b82018360208201111561020d5760006000fd5b803590602001918460018302840111640100000000831117156102305760006000fd5b91908080601f016020809104026020016040519081016040528093929190818152602001838380828437600081840152601f19601f82011690508083019250505050505050909091929090919290803590602001906401000000008111156102985760006000fd5b8201836020820111156102ab5760006000fd5b803590602001918460018302840111640100000000831117156102ce5760006000fd5b91908080601f016020809104026020016040519081016040528093929190818152602001838380828437600081840152601f19601f82011690508083019250505050505050909091929090919290803560ff16906020019092919050505061076a565b005b61033b6108c9565b6040518082815260200191505060405180910390f35b6103be600480360360608110156103685760006000fd5b81019080803573ffffffffffffffffffffffffffffffffffffffff169060200190929190803573ffffffffffffffffffffffffffffffffffffffff169060200190929190803590602001909291905050506108db565b604051808215151515815260200191505060405180910390f35b6103e06109da565b604051808260ff1660ff16815260200191505060405180910390f35b610449600480360360408110156104135760006000fd5b81019080803573ffffffffffffffffffffffffffffffffffffffff169060200190929190803590602001909291905050506109f6565b604051808215151515815260200191505060405180910390f35b6104a66004803603602081101561047a5760006000fd5b81019080803573ffffffffffffffffffffffffffffffffffffffff169060200190929190505050610ac9565b6040518082815260200191505060405180910390f35b6104c4610b1d565b005b6104ce610cbe565b6040518080602001828103825283818151815260200191508051906020019080838360005b8381101561050f5780820151818401525b6020810190506104f3565b50505050905090810190601f16801561053c5780820380516001836020036101000a031916815260200191505b509250505060405180910390f35b610597600480360360408110156105615760006000fd5b81019080803573ffffffffffffffffffffffffffffffffffffffff16906020019092919080359060200190929190505050610d68565b604051808215151515815260200191505060405180910390f35b6105fe600480360360408110156105c85760006000fd5b81019080803573ffffffffffffffffffffffffffffffffffffffff16906020019092919080359060200190929190505050610e55565b604051808215151515815260200191505060405180910390f35b61067b6004803603604081101561062f5760006000fd5b81019080803573ffffffffffffffffffffffffffffffffffffffff169060200190929190803573ffffffffffffffffffffffffffffffffffffffff169060200190929190505050610e84565b6040518082815260200191505060405180910390f35b606060686000508054600181600116156101000203166002900480601f01602080910402602001604051908101604052809291908181526020018280546001816001161561010002031660029004801561072c5780601f106107015761010080835404028352916020019161072c565b820191906000526020600020905b81548152906001019060200180831161070f57829003601f168201915b50505050509050610738565b90565b600061075b61074e610f1963ffffffff16565b8484610f2663ffffffff16565b60019050610764565b92915050565b600060019054906101000a900460ff168061078f575061078e61112d63ffffffff16565b5b806107a75750600060009054906101000a900460ff16155b15156107fe576040517f08c379a000000000000000000000000000000000000000000000000000000000815260040180806020018281038252602e81526020018061189a602e913960400191505060405180910390fd5b6000600060019054906101000a900460ff161590508015610850576001600060016101000a81548160ff0219169083151502179055506001600060006101000a81548160ff0219169083151502179055505b8360686000509080519060200190610869929190611756565b508260696000509080519060200190610883929190611756565b5081606a60006101000a81548160ff021916908360ff1602179055505b80156108c2576000600060016101000a81548160ff0219169083151502179055505b505b505050565b600060356000505490506108d8565b90565b60006108ee84848461114563ffffffff16565b6109ca84610900610f1963ffffffff16565b6109bf8560405180606001604052806028815260200161187260289139603460005060008b73ffffffffffffffffffffffffffffffffffffffff1673ffffffffffffffffffffffffffffffffffffffff1681526020019081526020016000206000506000610972610f1963ffffffff16565b73ffffffffffffffffffffffffffffffffffffffff1673ffffffffffffffffffffffffffffffffffffffff168152602001908152602001600020600050546114209092919063ffffffff16565b610f2663ffffffff16565b600190506109d3565b9392505050565b6000606a60009054906101000a900460ff1690506109f3565b90565b6000610aba610a09610f1963ffffffff16565b84610aaf8560346000506000610a23610f1963ffffffff16565b73ffffffffffffffffffffffffffffffffffffffff1673ffffffffffffffffffffffffffffffffffffffff16815260200190815260200160002060005060008973ffffffffffffffffffffffffffffffffffffffff1673ffffffffffffffffffffffffffffffffffffffff168152602001908152602001600020600050546114e990919063ffffffff16565b610f2663ffffffff16565b60019050610ac3565b92915050565b6000603360005060008373ffffffffffffffffffffffffffffffffffffffff1673ffffffffffffffffffffffffffffffffffffffff168152602001908152602001600020600050549050610b18565b919050565b600060019054906101000a900460ff1680610b425750610b4161112d63ffffffff16565b5b80610b5a5750600060009054906101000a900460ff16155b1515610bb1576040517f08c379a000000000000000000000000000000000000000000000000000000000815260040180806020018281038252602e81526020018061189a602e913960400191505060405180910390fd5b6000600060019054906101000a900460ff161590508015610c03576001600060016101000a81548160ff0219169083151502179055506001600060006101000a81548160ff0219169083151502179055505b610c856040518060400160405280600881526020017f446170704865726f0000000000000000000000000000000000000000000000008152602001506040518060400160405280600381526020017f4448520000000000000000000000000000000000000000000000000000000000815260200150601261076a63ffffffff16565b610c97336103e861157d63ffffffff16565b5b8015610cba576000600060016101000a81548160ff0219169083151502179055505b505b565b606060696000508054600181600116156101000203166002900480601f016020809104026020016040519081016040528092919081815260200182805460018160011615610100020316600290048015610d595780601f10610d2e57610100808354040283529160200191610d59565b820191906000526020600020905b815481529060010190602001808311610d3c57829003601f168201915b50505050509050610d65565b90565b6000610e46610d7b610f1963ffffffff16565b84610e3b856040518060600160405280602581526020016119116025913960346000506000610dae610f1963ffffffff16565b73ffffffffffffffffffffffffffffffffffffffff1673ffffffffffffffffffffffffffffffffffffffff16815260200190815260200160002060005060008a73ffffffffffffffffffffffffffffffffffffffff1673ffffffffffffffffffffffffffffffffffffffff168152602001908152602001600020600050546114209092919063ffffffff16565b610f2663ffffffff16565b60019050610e4f565b92915050565b6000610e75610e68610f1963ffffffff16565b848461114563ffffffff16565b60019050610e7e565b92915050565b6000603460005060008473ffffffffffffffffffffffffffffffffffffffff1673ffffffffffffffffffffffffffffffffffffffff16815260200190815260200160002060005060008373ffffffffffffffffffffffffffffffffffffffff1673ffffffffffffffffffffffffffffffffffffffff168152602001908152602001600020600050549050610f13565b92915050565b6000339050610f23565b90565b600073ffffffffffffffffffffffffffffffffffffffff168373ffffffffffffffffffffffffffffffffffffffff1614151515610fae576040517f08c379a00000000000000000000000000000000000000000000000000000000081526004018080602001828103825260248152602001806118ed6024913960400191505060405180910390fd5b600073ffffffffffffffffffffffffffffffffffffffff168273ffffffffffffffffffffffffffffffffffffffff1614151515611036576040517f08c379a000000000000000000000000000000000000000000000000000000000815260040180806020018281038252602281526020018061182a6022913960400191505060405180910390fd5b80603460005060008573ffffffffffffffffffffffffffffffffffffffff1673ffffffffffffffffffffffffffffffffffffffff16815260200190815260200160002060005060008473ffffffffffffffffffffffffffffffffffffffff1673ffffffffffffffffffffffffffffffffffffffff1681526020019081526020016000206000508190909055508173ffffffffffffffffffffffffffffffffffffffff168373ffffffffffffffffffffffffffffffffffffffff167f8c5be1e5ebec7d5bd14f71427d1e84f3dd0314c0f7b2291e5b200ac8c7c3b925836040518082815260200191505060405180910390a35b505050565b60006000303b90506000811491505061114256505b90565b600073ffffffffffffffffffffffffffffffffffffffff168373ffffffffffffffffffffffffffffffffffffffff16141515156111cd576040517f08c379a00000000000000000000000000000000000000000000000000000000081526004018080602001828103825260258152602001806118c86025913960400191505060405180910390fd5b600073ffffffffffffffffffffffffffffffffffffffff168273ffffffffffffffffffffffffffffffffffffffff1614151515611255576040517f08c379a00000000000000000000000000000000000000000000000000000000081526004018080602001828103825260238152602001806118076023913960400191505060405180910390fd5b6112c78160405180606001604052806026815260200161184c60269139603360005060008773ffffffffffffffffffffffffffffffffffffffff1673ffffffffffffffffffffffffffffffffffffffff168152602001908152602001600020600050546114209092919063ffffffff16565b603360005060008573ffffffffffffffffffffffffffffffffffffffff1673ffffffffffffffffffffffffffffffffffffffff16815260200190815260200160002060005081909090555061136a81603360005060008573ffffffffffffffffffffffffffffffffffffffff1673ffffffffffffffffffffffffffffffffffffffff168152602001908152602001600020600050546114e990919063ffffffff16565b603360005060008473ffffffffffffffffffffffffffffffffffffffff1673ffffffffffffffffffffffffffffffffffffffff1681526020019081526020016000206000508190909055508173ffffffffffffffffffffffffffffffffffffffff168373ffffffffffffffffffffffffffffffffffffffff167fddf252ad1be2c89b69c2b068fc378daa952ba7f163c4a11628f55a4df523b3ef836040518082815260200191505060405180910390a35b505050565b600083831115829015156114d0576040517f08c379a00000000000000000000000000000000000000000000000000000000081526004018080602001828103825283818151815260200191508051906020019080838360005b838110156114955780820151818401525b602081019050611479565b50505050905090810190601f1680156114c25780820380516001836020036101000a031916815260200191505b509250505060405180910390fd5b5060008385039050809150506114e256505b9392505050565b60006000828401905083811015151561156d576040517f08c379a000000000000000000000000000000000000000000000000000000000815260040180806020018281038252601b8152602001807f536166654d6174683a206164646974696f6e206f766572666c6f77000000000081526020015060200191505060405180910390fd5b8091505061157756505b92915050565b600073ffffffffffffffffffffffffffffffffffffffff168273ffffffffffffffffffffffffffffffffffffffff1614151515611625576040517f08c379a000000000000000000000000000000000000000000000000000000000815260040180806020018281038252601f8152602001807f45524332303a206d696e7420746f20746865207a65726f20616464726573730081526020015060200191505060405180910390fd5b61163d816035600050546114e990919063ffffffff16565b60356000508190909055506116a081603360005060008573ffffffffffffffffffffffffffffffffffffffff1673ffffffffffffffffffffffffffffffffffffffff168152602001908152602001600020600050546114e990919063ffffffff16565b603360005060008473ffffffffffffffffffffffffffffffffffffffff1673ffffffffffffffffffffffffffffffffffffffff1681526020019081526020016000206000508190909055508173ffffffffffffffffffffffffffffffffffffffff16600073ffffffffffffffffffffffffffffffffffffffff167fddf252ad1be2c89b69c2b068fc378daa952ba7f163c4a11628f55a4df523b3ef836040518082815260200191505060405180910390a35b5050565b828054600181600116156101000203166002900490600052602060002090601f016020900481019282601f1061179757805160ff19168380011785556117ca565b828001600101855582156117ca579182015b828111156117c957825182600050909055916020019190600101906117a9565b5b5090506117d791906117db565b5090565b61180391906117e5565b808211156117ff57600081815060009055506001016117e5565b5090565b9056fe45524332303a207472616e7366657220746f20746865207a65726f206164647265737345524332303a20617070726f766520746f20746865207a65726f206164647265737345524332303a207472616e7366657220616d6f756e7420657863656564732062616c616e636545524332303a207472616e7366657220616d6f756e74206578636565647320616c6c6f77616e6365436f6e747261637420696e7374616e63652068617320616c7265616479206265656e20696e697469616c697a656445524332303a207472616e736665722066726f6d20746865207a65726f206164647265737345524332303a20617070726f76652066726f6d20746865207a65726f206164647265737345524332303a2064656372656173656420616c6c6f77616e63652062656c6f77207a65726fa265627a7a7231582036d306fbdb6b79bd39df530c9530e366021358f19ab00dba994930e76dbe773264736f6c634300050d0032",
  "compiler": {
    "name": "solc",
    "version": "0.5.13+commit.5b0b510c.Emscripten.clang",
    "optimizer": {},
    "evmVersion": "constantinople"
  }
}